{
  "contractName": "FreeMoney",
  "abi": [
    {
      "constant": true,
      "inputs": [],
      "name": "name",
      "outputs": [
        {
          "name": "",
          "type": "string"
        }
      ],
      "payable": false,
      "stateMutability": "view",
      "type": "function"
    },
    {
      "constant": true,
      "inputs": [],
      "name": "totalSupply",
      "outputs": [
        {
          "name": "",
          "type": "uint256"
        }
      ],
      "payable": false,
      "stateMutability": "view",
      "type": "function"
    },
    {
      "constant": true,
      "inputs": [],
      "name": "maxPolicyLength",
      "outputs": [
        {
          "name": "",
          "type": "uint256"
        }
      ],
      "payable": false,
      "stateMutability": "view",
      "type": "function"
    },
    {
      "constant": true,
      "inputs": [],
      "name": "decimals",
      "outputs": [
        {
          "name": "",
          "type": "uint256"
        }
      ],
      "payable": false,
      "stateMutability": "view",
      "type": "function"
    },
    {
      "constant": true,
      "inputs": [
        {
          "name": "",
          "type": "bytes32"
        }
      ],
      "name": "heists",
      "outputs": [
        {
          "name": "instigator",
          "type": "address"
        },
        {
          "name": "deadline",
          "type": "uint256"
        },
        {
          "name": "initiateDeadline",
          "type": "uint256"
        },
        {
          "name": "bribe",
          "type": "uint256"
        },
        {
          "name": "initiated",
          "type": "bool"
        }
      ],
      "payable": false,
      "stateMutability": "view",
      "type": "function"
    },
    {
      "constant": true,
      "inputs": [
        {
          "name": "",
          "type": "address"
        }
      ],
      "name": "insurancePolicies",
      "outputs": [
        {
          "name": "value",
          "type": "uint256"
        },
        {
          "name": "expiry",
          "type": "uint256"
        }
      ],
      "payable": false,
      "stateMutability": "view",
      "type": "function"
    },
    {
      "constant": true,
      "inputs": [
        {
          "name": "",
          "type": "address"
        }
      ],
      "name": "balanceOf",
      "outputs": [
        {
          "name": "",
          "type": "uint256"
        }
      ],
      "payable": false,
      "stateMutability": "view",
      "type": "function"
    },
    {
      "constant": true,
      "inputs": [],
      "name": "owner",
      "outputs": [
        {
          "name": "",
          "type": "address"
        }
      ],
      "payable": false,
      "stateMutability": "view",
      "type": "function"
    },
    {
      "constant": true,
      "inputs": [
        {
          "name": "",
          "type": "uint256"
        }
      ],
      "name": "tokenHolders",
      "outputs": [
        {
          "name": "",
          "type": "address"
        }
      ],
      "payable": false,
      "stateMutability": "view",
      "type": "function"
    },
    {
      "constant": true,
      "inputs": [],
      "name": "symbol",
      "outputs": [
        {
          "name": "",
          "type": "string"
        }
      ],
      "payable": false,
      "stateMutability": "view",
      "type": "function"
    },
    {
      "constant": true,
      "inputs": [],
      "name": "insuranceFund",
      "outputs": [
        {
          "name": "",
          "type": "uint256"
        }
      ],
      "payable": false,
      "stateMutability": "view",
      "type": "function"
    },
    {
      "constant": true,
      "inputs": [],
      "name": "insuranceMultiplier",
      "outputs": [
        {
          "name": "",
          "type": "uint256"
        }
      ],
      "payable": false,
      "stateMutability": "view",
      "type": "function"
    },
    {
      "constant": true,
      "inputs": [],
      "name": "insuranceCost",
      "outputs": [
        {
          "name": "",
          "type": "uint256"
        }
      ],
      "payable": false,
      "stateMutability": "view",
      "type": "function"
    },
    {
      "constant": true,
      "inputs": [
        {
          "name": "",
          "type": "address"
        },
        {
          "name": "",
          "type": "address"
        }
      ],
      "name": "allowance",
      "outputs": [
        {
          "name": "",
          "type": "uint256"
        }
      ],
      "payable": false,
      "stateMutability": "view",
      "type": "function"
    },
    {
      "constant": false,
      "inputs": [
        {
          "name": "newOwner",
          "type": "address"
        }
      ],
      "name": "transferOwnership",
      "outputs": [],
      "payable": false,
      "stateMutability": "nonpayable",
      "type": "function"
    },
    {
      "inputs": [
        {
          "name": "_initialSupply",
          "type": "uint256"
        }
      ],
      "payable": false,
      "stateMutability": "nonpayable",
      "type": "constructor"
    },
    {
      "anonymous": false,
      "inputs": [
        {
          "indexed": true,
          "name": "_from",
          "type": "address"
        },
        {
          "indexed": true,
          "name": "_to",
          "type": "address"
        },
        {
          "indexed": false,
          "name": "_value",
          "type": "uint256"
        }
      ],
      "name": "Transfer",
      "type": "event"
    },
    {
      "anonymous": false,
      "inputs": [
        {
          "indexed": true,
          "name": "_owner",
          "type": "address"
        },
        {
          "indexed": true,
          "name": "_spender",
          "type": "address"
        },
        {
          "indexed": false,
          "name": "_value",
          "type": "uint256"
        }
      ],
      "name": "Approval",
      "type": "event"
    },
    {
      "anonymous": false,
      "inputs": [
        {
          "indexed": false,
          "name": "_amount",
          "type": "uint256"
        }
      ],
      "name": "Taxed",
      "type": "event"
    },
    {
      "anonymous": false,
      "inputs": [
        {
          "indexed": true,
          "name": "_instigator",
          "type": "address"
        },
        {
          "indexed": false,
          "name": "_deadline",
          "type": "uint256"
        }
      ],
      "name": "NewHeist",
      "type": "event"
    },
    {
      "anonymous": false,
      "inputs": [
        {
          "indexed": true,
          "name": "_conspirator",
          "type": "address"
        }
      ],
      "name": "JoinedHeist",
      "type": "event"
    },
    {
      "anonymous": false,
      "inputs": [
        {
          "indexed": true,
          "name": "_target",
          "type": "address"
        },
        {
          "indexed": true,
          "name": "_instigator",
          "type": "address"
        },
        {
          "indexed": false,
          "name": "_value",
          "type": "uint256"
        }
      ],
      "name": "Robbed",
      "type": "event"
    },
    {
      "anonymous": false,
      "inputs": [
        {
          "indexed": true,
          "name": "_policyHolder",
          "type": "address"
        },
        {
          "indexed": false,
          "name": "_expiry",
          "type": "uint256"
        },
        {
          "indexed": false,
          "name": "_type",
          "type": "uint8"
        }
      ],
      "name": "Insured",
      "type": "event"
    },
    {
      "anonymous": false,
      "inputs": [
        {
          "indexed": true,
          "name": "previousOwner",
          "type": "address"
        },
        {
          "indexed": true,
          "name": "newOwner",
          "type": "address"
        }
      ],
      "name": "OwnershipTransferred",
      "type": "event"
    },
    {
      "constant": false,
      "inputs": [
        {
          "name": "_to",
          "type": "address"
        },
        {
          "name": "_value",
          "type": "uint256"
        }
      ],
      "name": "transfer",
      "outputs": [
        {
          "name": "",
          "type": "bool"
        }
      ],
      "payable": false,
      "stateMutability": "nonpayable",
      "type": "function"
    },
    {
      "constant": false,
      "inputs": [
        {
          "name": "_from",
          "type": "address"
        },
        {
          "name": "_to",
          "type": "address"
        },
        {
          "name": "_value",
          "type": "uint256"
        }
      ],
      "name": "transferFrom",
      "outputs": [
        {
          "name": "",
          "type": "bool"
        }
      ],
      "payable": false,
      "stateMutability": "nonpayable",
      "type": "function"
    },
    {
      "constant": false,
      "inputs": [
        {
          "name": "_spender",
          "type": "address"
        },
        {
          "name": "_value",
          "type": "uint256"
        }
      ],
      "name": "approve",
      "outputs": [
        {
          "name": "",
          "type": "bool"
        }
      ],
      "payable": false,
      "stateMutability": "nonpayable",
      "type": "function"
    },
    {
      "constant": false,
      "inputs": [
        {
          "name": "_value",
          "type": "uint256"
        }
      ],
      "name": "mint",
      "outputs": [],
      "payable": true,
      "stateMutability": "payable",
      "type": "function"
    },
    {
      "constant": false,
      "inputs": [
        {
          "name": "_amount",
          "type": "uint256"
        }
      ],
      "name": "tax",
      "outputs": [],
      "payable": false,
      "stateMutability": "nonpayable",
      "type": "function"
    },
    {
      "constant": true,
      "inputs": [
        {
          "name": "_target",
          "type": "address"
        },
        {
          "name": "_salt",
          "type": "string"
        }
      ],
      "name": "hashTarget",
      "outputs": [
        {
          "name": "",
          "type": "bytes32"
        }
      ],
      "payable": false,
      "stateMutability": "pure",
      "type": "function"
    },
    {
      "constant": false,
      "inputs": [
        {
          "name": "_targetHash",
          "type": "bytes32"
        }
      ],
      "name": "planHeist",
      "outputs": [],
      "payable": true,
      "stateMutability": "payable",
      "type": "function"
    },
    {
      "constant": false,
      "inputs": [
        {
          "name": "_target",
          "type": "address"
        },
        {
          "name": "_salt",
          "type": "string"
        }
      ],
      "name": "initiateHeist",
      "outputs": [],
      "payable": false,
      "stateMutability": "nonpayable",
      "type": "function"
    },
    {
      "constant": true,
      "inputs": [
        {
          "name": "_targetHash",
          "type": "bytes32"
        }
      ],
      "name": "getHeistOdds",
      "outputs": [
        {
          "name": "",
          "type": "uint256"
        }
      ],
      "payable": false,
      "stateMutability": "view",
      "type": "function"
    },
    {
      "constant": true,
      "inputs": [
        {
          "name": "_address",
          "type": "address"
        }
      ],
      "name": "isInsured",
      "outputs": [
        {
          "name": "",
          "type": "bool"
        }
      ],
      "payable": false,
      "stateMutability": "view",
      "type": "function"
    },
    {
      "constant": false,
      "inputs": [
        {
          "name": "_days",
          "type": "uint256"
        }
      ],
      "name": "buyInsurance",
      "outputs": [],
      "payable": false,
      "stateMutability": "nonpayable",
      "type": "function"
    }
  ],
  "bytecode": "0x60806040526040805190810160405280600a81526020017f46726565204d6f6e6579000000000000000000000000000000000000000000008152506001908051906020019062000051929190620001e8565b506040805190810160405280600381526020017f464d590000000000000000000000000000000000000000000000000000000000815250600290805190602001906200009f929190620001e8565b50601260035560006009556007600a55600354600a0a606402600b556002600c55348015620000cd57600080fd5b5060405160208062002f9783398101806040528101908080519060200190929190505050336000806101000a81548173ffffffffffffffffffffffffffffffffffffffff021916908373ffffffffffffffffffffffffffffffffffffffff16021790555062000159600354600a0a82620001ac6401000000000262002358179091906401000000009004565b600481905550600454600560003373ffffffffffffffffffffffffffffffffffffffff1673ffffffffffffffffffffffffffffffffffffffff168152602001908152602001600020819055505062000297565b600080831415620001c15760009050620001e2565b8183029050818382811515620001d357fe5b04141515620001de57fe5b8090505b92915050565b828054600181600116156101000203166002900490600052602060002090601f016020900481019282601f106200022b57805160ff19168380011785556200025c565b828001600101855582156200025c579182015b828111156200025b5782518255916020019190600101906200023e565b5b5090506200026b91906200026f565b5090565b6200029491905b808211156200029057600081600090555060010162000276565b5090565b90565b612cf080620002a76000396000f300608060405260043610610154576000357c0100000000000000000000000000000000000000000000000000000000900463ffffffff16806306fdde0314610159578063095ea7b3146101e95780631317faf81461024e57806318160ddd146102f35780631ae3d5ff1461031e57806323b872dd1461034b5780632e082733146103d0578063313ce567146103fb57806335e378ef146104265780633b291c01146104b75780636bd7a8ca146105155780636d7c92bd1461059e57806370a08231146105e35780637816ce6b1461063a5780638da5cb5b1461065e578063923108d9146106b557806395d89b41146107225780639ba29d6d146107b2578063a0712d681461080d578063a86a658c1461082d578063a9059cbb1461085a578063b7902303146108bf578063ba6c9d59146108ea578063c807848214610915578063dd62ed3e14610940578063f2fde38b146109b7575b600080fd5b34801561016557600080fd5b5061016e6109fa565b6040518080602001828103825283818151815260200191508051906020019080838360005b838110156101ae578082015181840152602081019050610193565b50505050905090810190601f1680156101db5780820380516001836020036101000a031916815260200191505b509250505060405180910390f35b3480156101f557600080fd5b50610234600480360381019080803573ffffffffffffffffffffffffffffffffffffffff16906020019092919080359060200190929190505050610a98565b604051808215151515815260200191505060405180910390f35b34801561025a57600080fd5b506102d5600480360381019080803573ffffffffffffffffffffffffffffffffffffffff169060200190929190803590602001908201803590602001908080601f0160208091040260200160405190810160405280939291908181526020018383808284378201915050505050509192919290505050610b8a565b60405180826000191660001916815260200191505060405180910390f35b3480156102ff57600080fd5b50610308610c3a565b6040518082815260200191505060405180910390f35b34801561032a57600080fd5b5061034960048036038101908080359060200190929190505050610c40565b005b34801561035757600080fd5b506103b6600480360381019080803573ffffffffffffffffffffffffffffffffffffffff169060200190929190803573ffffffffffffffffffffffffffffffffffffffff16906020019092919080359060200190929190505050610e19565b604051808215151515815260200191505060405180910390f35b3480156103dc57600080fd5b506103e5610fc9565b6040518082815260200191505060405180910390f35b34801561040757600080fd5b50610410610fcf565b6040518082815260200191505060405180910390f35b34801561043257600080fd5b506104556004803603810190808035600019169060200190929190505050610fd5565b604051808673ffffffffffffffffffffffffffffffffffffffff1673ffffffffffffffffffffffffffffffffffffffff168152602001858152602001848152602001838152602001821515151581526020019550505050505060405180910390f35b3480156104c357600080fd5b506104f8600480360381019080803573ffffffffffffffffffffffffffffffffffffffff169060200190929190505050611038565b604051808381526020018281526020019250505060405180910390f35b34801561052157600080fd5b5061059c600480360381019080803573ffffffffffffffffffffffffffffffffffffffff169060200190929190803590602001908201803590602001908080601f016020809104026020016040519081016040528093929190818152602001838380828437820191505050505050919291929050505061105c565b005b3480156105aa57600080fd5b506105cd6004803603810190808035600019169060200190929190505050611588565b6040518082815260200191505060405180910390f35b3480156105ef57600080fd5b50610624600480360381019080803573ffffffffffffffffffffffffffffffffffffffff1690602001909291905050506117a9565b6040518082815260200191505060405180910390f35b61065c60048036038101908080356000191690602001909291905050506117c1565b005b34801561066a57600080fd5b50610673611a9a565b604051808273ffffffffffffffffffffffffffffffffffffffff1673ffffffffffffffffffffffffffffffffffffffff16815260200191505060405180910390f35b3480156106c157600080fd5b506106e060048036038101908080359060200190929190505050611abf565b604051808273ffffffffffffffffffffffffffffffffffffffff1673ffffffffffffffffffffffffffffffffffffffff16815260200191505060405180910390f35b34801561072e57600080fd5b50610737611afd565b6040518080602001828103825283818151815260200191508051906020019080838360005b8381101561077757808201518184015260208101905061075c565b50505050905090810190601f1680156107a45780820380516001836020036101000a031916815260200191505b509250505060405180910390f35b3480156107be57600080fd5b506107f3600480360381019080803573ffffffffffffffffffffffffffffffffffffffff169060200190929190505050611b9b565b604051808215151515815260200191505060405180910390f35b61082b60048036038101908080359060200190929190505050611c2c565b005b34801561083957600080fd5b5061085860048036038101908080359060200190929190505050611f16565b005b34801561086657600080fd5b506108a5600480360381019080803573ffffffffffffffffffffffffffffffffffffffff169060200190929190803590602001909291905050506121a1565b604051808215151515815260200191505060405180910390f35b3480156108cb57600080fd5b506108d46121b6565b6040518082815260200191505060405180910390f35b3480156108f657600080fd5b506108ff6121bc565b6040518082815260200191505060405180910390f35b34801561092157600080fd5b5061092a6121c2565b6040518082815260200191505060405180910390f35b34801561094c57600080fd5b506109a1600480360381019080803573ffffffffffffffffffffffffffffffffffffffff169060200190929190803573ffffffffffffffffffffffffffffffffffffffff1690602001909291905050506121c8565b6040518082815260200191505060405180910390f35b3480156109c357600080fd5b506109f8600480360381019080803573ffffffffffffffffffffffffffffffffffffffff1690602001909291905050506121ed565b005b60018054600181600116156101000203166002900480601f016020809104026020016040519081016040528092919081815260200182805460018160011615610100020316600290048015610a905780601f10610a6557610100808354040283529160200191610a90565b820191906000526020600020905b815481529060010190602001808311610a7357829003601f168201915b505050505081565b600081600660003373ffffffffffffffffffffffffffffffffffffffff1673ffffffffffffffffffffffffffffffffffffffff16815260200190815260200160002060008573ffffffffffffffffffffffffffffffffffffffff1673ffffffffffffffffffffffffffffffffffffffff168152602001908152602001600020819055508273ffffffffffffffffffffffffffffffffffffffff163373ffffffffffffffffffffffffffffffffffffffff167f8c5be1e5ebec7d5bd14f71427d1e84f3dd0314c0f7b2291e5b200ac8c7c3b925846040518082815260200191505060405180910390a36001905092915050565b60008282604051808373ffffffffffffffffffffffffffffffffffffffff1673ffffffffffffffffffffffffffffffffffffffff166c0100000000000000000000000002815260140182805190602001908083835b602083101515610c045780518252602082019150602081019050602083039250610bdf565b6001836020036101000a038019825116818451168082178552505050505050905001925050506040518091039020905092915050565b60045481565b60008060009054906101000a900473ffffffffffffffffffffffffffffffffffffffff1673ffffffffffffffffffffffffffffffffffffffff163373ffffffffffffffffffffffffffffffffffffffff16141515610c9d57600080fd5b60648210158015610cb057506103e88211155b1515610cbb57600080fd5b600090505b600780549050811015610dde57610dd0600782815481101515610cdf57fe5b9060005260206000200160009054906101000a900473ffffffffffffffffffffffffffffffffffffffff166000809054906101000a900473ffffffffffffffffffffffffffffffffffffffff16610dcb85610dbd6127106005600060078a815481101515610d4957fe5b9060005260206000200160009054906101000a900473ffffffffffffffffffffffffffffffffffffffff1673ffffffffffffffffffffffffffffffffffffffff1673ffffffffffffffffffffffffffffffffffffffff1681526020019081526020016000205461234290919063ffffffff16565b61235890919063ffffffff16565b612390565b508080600101915050610cc0565b7fb3bcaa6263f7ca83bace3d139394732c64ddfc065166906bb7589f492d0d63db826040518082815260200191505060405180910390a15050565b6000600660008573ffffffffffffffffffffffffffffffffffffffff1673ffffffffffffffffffffffffffffffffffffffff16815260200190815260200160002060003373ffffffffffffffffffffffffffffffffffffffff1673ffffffffffffffffffffffffffffffffffffffff168152602001908152602001600020548211151515610ea657600080fd5b610f3582600660008773ffffffffffffffffffffffffffffffffffffffff1673ffffffffffffffffffffffffffffffffffffffff16815260200190815260200160002060003373ffffffffffffffffffffffffffffffffffffffff1673ffffffffffffffffffffffffffffffffffffffff168152602001908152602001600020546127c090919063ffffffff16565b600660008673ffffffffffffffffffffffffffffffffffffffff1673ffffffffffffffffffffffffffffffffffffffff16815260200190815260200160002060003373ffffffffffffffffffffffffffffffffffffffff1673ffffffffffffffffffffffffffffffffffffffff16815260200190815260200160002081905550610fc0848484612390565b90509392505050565b600a5481565b60035481565b60086020528060005260406000206000915090508060000160009054906101000a900473ffffffffffffffffffffffffffffffffffffffff16908060020154908060030154908060040154908060050160009054906101000a900460ff16905085565b600d6020528060005260406000206000915090508060000154908060010154905082565b60008060008060008060006110718989610b8a565b965060086000886000191660001916815260200190815260200160002095508560050160009054906101000a900460ff161515156110ae57600080fd5b856002015442101515156110c157600080fd5b856003015442111515156110d457600080fd5b3373ffffffffffffffffffffffffffffffffffffffff168660000160009054906101000a900473ffffffffffffffffffffffffffffffffffffffff1673ffffffffffffffffffffffffffffffffffffffff1614151561113257600080fd5b60018660050160006101000a81548160ff0219169083151502179055506111c4600560008060009054906101000a900473ffffffffffffffffffffffffffffffffffffffff1673ffffffffffffffffffffffffffffffffffffffff1673ffffffffffffffffffffffffffffffffffffffff168152602001908152602001600020546004546127c090919063ffffffff16565b94506111ed60056111df60648861234290919063ffffffff16565b61235890919063ffffffff16565b93506111f989896127d9565b8015611243575083600560008b73ffffffffffffffffffffffffffffffffffffffff1673ffffffffffffffffffffffffffffffffffffffff16815260200190815260200160002054115b1561157d574244338b8b604051808681526020018581526020018473ffffffffffffffffffffffffffffffffffffffff1673ffffffffffffffffffffffffffffffffffffffff166c010000000000000000000000000281526014018373ffffffffffffffffffffffffffffffffffffffff1673ffffffffffffffffffffffffffffffffffffffff166c0100000000000000000000000002815260140182805190602001908083835b60208310151561131057805182526020820191506020810190506020830392506112eb565b6001836020036101000a038019825116818451168082178552505050505050905001955050505050506040518091039020925061137a600a61136c60016004876001900481151561135d57fe5b06612b1a90919063ffffffff16565b61235890919063ffffffff16565b91506113e1826113d36064600560008e73ffffffffffffffffffffffffffffffffffffffff1673ffffffffffffffffffffffffffffffffffffffff1681526020019081526020016000205461234290919063ffffffff16565b61235890919063ffffffff16565b90506115178660c060405190810160405290816000820160009054906101000a900473ffffffffffffffffffffffffffffffffffffffff1673ffffffffffffffffffffffffffffffffffffffff1673ffffffffffffffffffffffffffffffffffffffff168152602001600182018054806020026020016040519081016040528092919081815260200182805480156114ce57602002820191906000526020600020905b8160009054906101000a900473ffffffffffffffffffffffffffffffffffffffff1673ffffffffffffffffffffffffffffffffffffffff1681526020019060010190808311611484575b505050505081526020016002820154815260200160038201548152602001600482015481526020016005820160009054906101000a900460ff1615151515815250508a83612b36565b3373ffffffffffffffffffffffffffffffffffffffff168973ffffffffffffffffffffffffffffffffffffffff167f64496cf7d7ff7f8a136e832e3364c67b260e2d155296bbee239bbdc91b4ec39f836040518082815260200191505060405180910390a35b505050505050505050565b6000611592612c5b565b600060086000856000191660001916815260200190815260200160002060c060405190810160405290816000820160009054906101000a900473ffffffffffffffffffffffffffffffffffffffff1673ffffffffffffffffffffffffffffffffffffffff1673ffffffffffffffffffffffffffffffffffffffff1681526020016001820180548060200260200160405190810160405280929190818152602001828054801561169657602002820191906000526020600020905b8160009054906101000a900473ffffffffffffffffffffffffffffffffffffffff1673ffffffffffffffffffffffffffffffffffffffff168152602001906001019080831161164c575b505050505081526020016002820154815260200160038201548152602001600482015481526020016005820160009054906101000a900460ff161515151581525050915060329050670de0b6b3a7640000826080015111156116fb57605a905061174f565b67016345785d8a000082608001511115611718576050905061174e565b662386f26fc1000082608001511115611734576046905061174d565b66038d7ea4c680008260800151111561174c57603c90505b5b5b5b6000826020015151141561177857611771600a826127c090919063ffffffff16565b905061179f565b61179c600a83602001515181151561178c57fe5b0682612b1a90919063ffffffff16565b90505b8092505050919050565b60056020528060005260406000206000915090505481565b600060086000836000191660001916815260200190815260200160002090506000341115611852576000809054906101000a900473ffffffffffffffffffffffffffffffffffffffff1673ffffffffffffffffffffffffffffffffffffffff166108fc349081150290604051600060405180830381858888f19350505050158015611850573d6000803e3d6000fd5b505b60008160000160009054906101000a900473ffffffffffffffffffffffffffffffffffffffff1673ffffffffffffffffffffffffffffffffffffffff16141561197157338160000160006101000a81548173ffffffffffffffffffffffffffffffffffffffff021916908373ffffffffffffffffffffffffffffffffffffffff16021790555062015180420181600201819055506201fa404201816003018190555034816004018190555060008160050160006101000a81548160ff0219169083151502179055503373ffffffffffffffffffffffffffffffffffffffff167f7079965f847580b3709f08849ebba4e5ca742019f9cd234d55a40d2a7978713d82600201546040518082815260200191505060405180910390a2611a96565b611988348260040154612b1a90919063ffffffff16565b81600401819055503373ffffffffffffffffffffffffffffffffffffffff168160000160009054906101000a900473ffffffffffffffffffffffffffffffffffffffff1673ffffffffffffffffffffffffffffffffffffffff16141515611a9557806001013390806001815401808255809150509060018203906000526020600020016000909192909190916101000a81548173ffffffffffffffffffffffffffffffffffffffff021916908373ffffffffffffffffffffffffffffffffffffffff160217905550503373ffffffffffffffffffffffffffffffffffffffff167fa065391bddee72142adfb9f2c9db40894c0641808de63f9f440ab1f74a9918ea60405160405180910390a25b5b5050565b6000809054906101000a900473ffffffffffffffffffffffffffffffffffffffff1681565b600781815481101515611ace57fe5b906000526020600020016000915054906101000a900473ffffffffffffffffffffffffffffffffffffffff1681565b60028054600181600116156101000203166002900480601f016020809104026020016040519081016040528092919081815260200182805460018160011615610100020316600290048015611b935780601f10611b6857610100808354040283529160200191611b93565b820191906000526020600020905b815481529060010190602001808311611b7657829003601f168201915b505050505081565b6000611ba5612caa565b600d60008473ffffffffffffffffffffffffffffffffffffffff1673ffffffffffffffffffffffffffffffffffffffff168152602001908152602001600020604080519081016040529081600082015481526020016001820154815250509050600081602001511115611c215742816020015110159150611c26565b600091505b50919050565b60008060009054906101000a900473ffffffffffffffffffffffffffffffffffffffff1673ffffffffffffffffffffffffffffffffffffffff163373ffffffffffffffffffffffffffffffffffffffff161480611c895750600034115b1515611c9457600080fd5b611cac600354600a0a8361235890919063ffffffff16565b9050611d0081600560003373ffffffffffffffffffffffffffffffffffffffff1673ffffffffffffffffffffffffffffffffffffffff16815260200190815260200160002054612b1a90919063ffffffff16565b600560003373ffffffffffffffffffffffffffffffffffffffff1673ffffffffffffffffffffffffffffffffffffffff16815260200190815260200160002081905550611d5881600454612b1a90919063ffffffff16565b6004819055506000809054906101000a900473ffffffffffffffffffffffffffffffffffffffff1673ffffffffffffffffffffffffffffffffffffffff1660007fddf252ad1be2c89b69c2b068fc378daa952ba7f163c4a11628f55a4df523b3ef846040518082815260200191505060405180910390a36000809054906101000a900473ffffffffffffffffffffffffffffffffffffffff1673ffffffffffffffffffffffffffffffffffffffff163373ffffffffffffffffffffffffffffffffffffffff16141515611f125760073390806001815401808255809150509060018203906000526020600020016000909192909190916101000a81548173ffffffffffffffffffffffffffffffffffffffff021916908373ffffffffffffffffffffffffffffffffffffffff160217905550503373ffffffffffffffffffffffffffffffffffffffff166000809054906101000a900473ffffffffffffffffffffffffffffffffffffffff1673ffffffffffffffffffffffffffffffffffffffff167fddf252ad1be2c89b69c2b068fc378daa952ba7f163c4a11628f55a4df523b3ef846040518082815260200191505060405180910390a35b5050565b600080611f2233611b9b565b151515611f2e57600080fd5b60018310158015611f415750600a548311155b1515611f4c57600080fd5b600d60003373ffffffffffffffffffffffffffffffffffffffff1673ffffffffffffffffffffffffffffffffffffffff1681526020019081526020016000209150600082600001541415612016576201518042018260010181905550600b5482600001819055503373ffffffffffffffffffffffffffffffffffffffff167fa2e9b64360484df198a6f5122927c7604b0b3b0fc5b014f9b0e3e03a65c5caa083600101546001604051808381526020018260ff1681526020019250505060405180910390a261219c565b61202d83836000015461235890919063ffffffff16565b905080600560003373ffffffffffffffffffffffffffffffffffffffff1673ffffffffffffffffffffffffffffffffffffffff168152602001908152602001600020541015151561207d57600080fd5b6120cf81600560003373ffffffffffffffffffffffffffffffffffffffff1673ffffffffffffffffffffffffffffffffffffffff168152602001908152602001600020546127c090919063ffffffff16565b600560003373ffffffffffffffffffffffffffffffffffffffff1673ffffffffffffffffffffffffffffffffffffffff1681526020019081526020016000208190555061212781600954612b1a90919063ffffffff16565b600981905550620151808302420182600101819055503373ffffffffffffffffffffffffffffffffffffffff167fa2e9b64360484df198a6f5122927c7604b0b3b0fc5b014f9b0e3e03a65c5caa083600101546002604051808381526020018260ff1681526020019250505060405180910390a25b505050565b60006121ae338484612390565b905092915050565b60095481565b600c5481565b600b5481565b6006602052816000526040600020602052806000526040600020600091509150505481565b6000809054906101000a900473ffffffffffffffffffffffffffffffffffffffff1673ffffffffffffffffffffffffffffffffffffffff163373ffffffffffffffffffffffffffffffffffffffff1614151561224857600080fd5b600073ffffffffffffffffffffffffffffffffffffffff168173ffffffffffffffffffffffffffffffffffffffff161415151561228457600080fd5b8073ffffffffffffffffffffffffffffffffffffffff166000809054906101000a900473ffffffffffffffffffffffffffffffffffffffff1673ffffffffffffffffffffffffffffffffffffffff167f8be0079c531659141344cd1fd0a4f28419497f9722a3daafe3b4186f6b6457e060405160405180910390a3806000806101000a81548173ffffffffffffffffffffffffffffffffffffffff021916908373ffffffffffffffffffffffffffffffffffffffff16021790555050565b6000818381151561234f57fe5b04905092915050565b60008083141561236b576000905061238a565b818302905081838281151561237c57fe5b0414151561238657fe5b8090505b92915050565b60008060008473ffffffffffffffffffffffffffffffffffffffff16141515156123b957600080fd5b82600560008773ffffffffffffffffffffffffffffffffffffffff1673ffffffffffffffffffffffffffffffffffffffff168152602001908152602001600020541015151561240757600080fd5b6000600560008673ffffffffffffffffffffffffffffffffffffffff1673ffffffffffffffffffffffffffffffffffffffff1681526020019081526020016000205414156124b65760078490806001815401808255809150509060018203906000526020600020016000909192909190916101000a81548173ffffffffffffffffffffffffffffffffffffffff021916908373ffffffffffffffffffffffffffffffffffffffff160217905550505b61250883600560008873ffffffffffffffffffffffffffffffffffffffff1673ffffffffffffffffffffffffffffffffffffffff168152602001908152602001600020546127c090919063ffffffff16565b600560008773ffffffffffffffffffffffffffffffffffffffff1673ffffffffffffffffffffffffffffffffffffffff1681526020019081526020016000208190555061259d83600560008773ffffffffffffffffffffffffffffffffffffffff1673ffffffffffffffffffffffffffffffffffffffff16815260200190815260200160002054612b1a90919063ffffffff16565b600560008673ffffffffffffffffffffffffffffffffffffffff1673ffffffffffffffffffffffffffffffffffffffff168152602001908152602001600020819055506000600560008773ffffffffffffffffffffffffffffffffffffffff1673ffffffffffffffffffffffffffffffffffffffff1681526020019081526020016000205414801561267c57506000809054906101000a900473ffffffffffffffffffffffffffffffffffffffff1673ffffffffffffffffffffffffffffffffffffffff168573ffffffffffffffffffffffffffffffffffffffff1614155b1561274f57600090505b60078054905081101561274e578473ffffffffffffffffffffffffffffffffffffffff166007828154811015156126b957fe5b9060005260206000200160009054906101000a900473ffffffffffffffffffffffffffffffffffffffff1673ffffffffffffffffffffffffffffffffffffffff1614156127415760078181548110151561270f57fe5b9060005260206000200160006101000a81549073ffffffffffffffffffffffffffffffffffffffff021916905561274e565b8080600101915050612686565b5b8373ffffffffffffffffffffffffffffffffffffffff168573ffffffffffffffffffffffffffffffffffffffff167fddf252ad1be2c89b69c2b068fc378daa952ba7f163c4a11628f55a4df523b3ef856040518082815260200191505060405180910390a360019150509392505050565b60008282111515156127ce57fe5b818303905092915050565b60008060006127e6612c5b565b60008060006127f58989610b8a565b95504244338b8b604051808681526020018581526020018473ffffffffffffffffffffffffffffffffffffffff1673ffffffffffffffffffffffffffffffffffffffff166c010000000000000000000000000281526014018373ffffffffffffffffffffffffffffffffffffffff1673ffffffffffffffffffffffffffffffffffffffff166c0100000000000000000000000002815260140182805190602001908083835b6020831015156128bf578051825260208201915060208101905060208303925061289a565b6001836020036101000a038019825116818451168082178552505050505050905001955050505050506040518091039020945060086000876000191660001916815260200190815260200160002060c060405190810160405290816000820160009054906101000a900473ffffffffffffffffffffffffffffffffffffffff1673ffffffffffffffffffffffffffffffffffffffff1673ffffffffffffffffffffffffffffffffffffffff168152602001600182018054806020026020016040519081016040528092919081815260200182805480156129f457602002820191906000526020600020905b8160009054906101000a900473ffffffffffffffffffffffffffffffffffffffff1673ffffffffffffffffffffffffffffffffffffffff16815260200190600101908083116129aa575b505050505081526020016002820154815260200160038201548152602001600482015481526020016005820160009054906101000a900460ff1615151515815250509350600092505b836020015151831015612aea578483856020015151866020015186815181101515612a6457fe5b906020019060200201516040518085600019166000191681526020018481526020018381526020018273ffffffffffffffffffffffffffffffffffffffff1673ffffffffffffffffffffffffffffffffffffffff166c01000000000000000000000000028152601401945050505050604051809103902094508280600101935050612a3d565b612af386611588565b915060648560019004811515612b0557fe5b06905081811115965050505050505092915050565b60008183019050828110151515612b2d57fe5b80905092915050565b6000806000806000612b5260648761234290919063ffffffff16565b9450612b7b6050612b6d60648961234290919063ffffffff16565b61235890919063ffffffff16565b9350612ba2612b938587612b1a90919063ffffffff16565b876127c090919063ffffffff16565b9250612bd0876000809054906101000a900473ffffffffffffffffffffffffffffffffffffffff1687612390565b50612bdc873386612390565b50600090505b876020015151811015612c5157612c16600a612c0860648661234290919063ffffffff16565b61235890919063ffffffff16565b91508283039250612c4387896020015183815181101515612c3357fe5b9060200190602002015184612390565b508080600101915050612be2565b5050505050505050565b60c060405190810160405280600073ffffffffffffffffffffffffffffffffffffffff168152602001606081526020016000815260200160008152602001600081526020016000151581525090565b6040805190810160405280600081526020016000815250905600a165627a7a723058206067bb731ee900c55f8548fc0c56a0f25ee4aef9743a1ab0c4914e853ef1a5aa0029",
  "source": "pragma solidity ^0.4.23;\n\nimport 'zeppelin-solidity/contracts/ownership/Ownable.sol';\nimport 'zeppelin-solidity/contracts/math/SafeMath.sol';\n\n/// @title Free Money\n/// @author Brendan Smith\n/// @notice Everyone deserves to be rich ;)\ncontract FreeMoney is Ownable {\n    using SafeMath for uint256;\n\n    string public name = 'Free Money';\n    string public symbol = 'FMY';\n    uint256 public decimals = 18;\n    uint256 public totalSupply;\n    mapping (address => uint256) public balanceOf;\n    mapping (address => mapping (address => uint256)) public allowance;\n    event Transfer(address indexed _from, address indexed _to, uint256 _value);\n    event Approval(address indexed _owner, address indexed _spender, uint256 _value);\n\n    /// @notice Token holder tracking for tax purposes\n    address[] public tokenHolders;\n    event Taxed(uint256 _amount);\n\n    /// @notice Heists can be instigated by any token holder\n    struct Heist {\n        address instigator;\n        address[] conspirators;\n        uint256 deadline;\n        uint256 initiateDeadline;\n        uint256 bribe;\n        bool initiated;\n    }\n    mapping (bytes32 => Heist) public heists;\n    event NewHeist(address indexed _instigator, uint256 _deadline);\n    event JoinedHeist(address indexed _conspirator);\n    event Robbed(address indexed _target, address indexed _instigator, uint256 _value);\n\n    /// @notice Insurance protects against loss from heists\n    struct InsurancePolicy {\n        uint256 value;\n        uint256 expiry;\n    }\n    uint256 public insuranceFund = 0;\n    uint256 public maxPolicyLength = 7; // days\n    uint256 public insuranceCost = 100 * (10 ** decimals);\n    uint256 public insuranceMultiplier = 2;\n    mapping (address => InsurancePolicy) public insurancePolicies;\n    event Insured(address indexed _policyHolder, uint256 _expiry, uint8 _type);\n\n    /// @notice Instantiates the contract and gives the initial tokens to the sender\n    /// @param _initialSupply Number of initial tokens\n    constructor(uint256 _initialSupply) public {\n        totalSupply = _initialSupply.mul(10 ** decimals);\n        balanceOf[msg.sender] = totalSupply;\n    }\n\n    /// @notice Transfers tokens between two addresses\n    /// @param _from Sending address\n    /// @param _to Receiving address\n    /// @param _value Number tokens to send\n    function _transfer(address _from, address _to, uint256 _value) internal returns (bool) {\n        require(_to != 0x0); // To address cannot be 0\n        require(balanceOf[_from] >= _value);\n\n        // Check if the recipient is a token holder already\n        if (balanceOf[_to] == 0) {\n            tokenHolders.push(_to);\n        }\n\n        balanceOf[_from] = balanceOf[_from].sub(_value);\n        balanceOf[_to] = balanceOf[_to].add(_value);\n\n        // Remove the sender from the token holders list\n        if (balanceOf[_from] == 0 && _from != owner) {\n            for (uint256 i = 0; i < tokenHolders.length; i++) {\n                if (tokenHolders[i] == _from) {\n                    delete tokenHolders[i];\n                    break;\n                }\n            }\n        }\n\n        emit Transfer(_from, _to, _value);\n\n        return true;\n    }\n\n    /// @notice Transfers tokens from the sender\n    /// @param _to Receiving address\n    /// @param _value Number tokens to send\n    /// @return true If the tranfer succeeds\n    function transfer(address _to, uint256 _value) public returns (bool) {\n        return _transfer(msg.sender, _to, _value);\n    }\n\n    /// @notice Spends the senders allowance from the _from address\n    /// @param _from Sending address\n    /// @param _to Receiving address\n    /// @param _value Number tokens to send\n    /// @return true If the tranfer succeeds\n    function transferFrom(address _from, address _to, uint256 _value) public returns (bool) {\n        require(_value <= allowance[_from][msg.sender]);\n\n        allowance[_from][msg.sender] = allowance[_from][msg.sender].sub(_value);\n\n        return _transfer(_from, _to, _value);\n    }\n\n    /// @notice Approves an address to spend an allowance of tokens from the sender address\n    /// @param _spender The address to approve for spending the senders tokens\n    /// @param _value Number tokens the spender can send\n    /// @return true If the approval succeeds\n    function approve(address _spender, uint256 _value) public returns (bool) {\n        allowance[msg.sender][_spender] = _value;\n\n        emit Approval(msg.sender, _spender, _value);\n\n        return true;\n    }\n\n    /// @notice Mints a number of new coins for a donation of ETH\n    /// @dev Free for the owner\n    /// @param _value Number of tokens to mint\n    function mint(uint256 _value) public payable {\n        require(msg.sender == owner || msg.value > 0);\n\n        uint256 newAmount = _value.mul(10 ** decimals);\n        balanceOf[msg.sender] = balanceOf[msg.sender].add(newAmount);\n        totalSupply = totalSupply.add(newAmount);\n\n        emit Transfer(0, owner, _value);\n\n        if (msg.sender != owner) {\n            tokenHolders.push(msg.sender);\n\n            emit Transfer(owner, msg.sender, _value);\n        }\n    }\n\n    /// @notice Taxes each token holder and transfers the tokens to the owner\n    /// @dev This method will likely have a high gas cost\n    /// @param _amount The amount to tax, range is 1-10%\n    function tax(uint256 _amount) public onlyOwner {\n        // Tax amount must be between 1% and 10%\n        require(_amount >= 100 && _amount <= 1000);\n\n        for (uint256 i = 0; i < tokenHolders.length; i++) {\n            _transfer(tokenHolders[i], owner, (balanceOf[tokenHolders[i]].div(10000).mul(_amount)));\n        }\n\n        emit Taxed(_amount);\n    }\n\n    /// @dev Hash the target address for a heist\n    /// @param _target The target address for a heist\n    /// @param _salt A random value to ensure secrecy of the target\n    /// @return The hash of the target address\n    function hashTarget(address _target, string _salt) pure public returns (bytes32) {\n        return keccak256(_target, _salt);\n    }\n\n    /// @notice Starts a heist or joins an existing heist\n    /// @param _targetHash A hashed target, created by the hashTarget function\n    function planHeist(bytes32 _targetHash) public payable {\n        Heist storage heist = heists[_targetHash];\n\n        // Bribes are always helpful\n        if (msg.value > 0) {\n            owner.transfer(msg.value);\n        }\n\n        if (heist.instigator == 0) {\n            // New heist, set the 24 hour deadline\n            heist.instigator = msg.sender;\n            heist.deadline = now + 24 hours;\n            heist.initiateDeadline = now + 36 hours;\n            heist.bribe = msg.value;\n            heist.initiated = false;\n\n            emit NewHeist(msg.sender, heist.deadline);\n        } else {\n            heist.bribe = heist.bribe.add(msg.value);\n\n            // Existing heist, add the sender to the conspirators\n            if (heist.instigator != msg.sender) {\n                heist.conspirators.push(msg.sender);\n\n                emit JoinedHeist(msg.sender);\n            }\n        }\n    }\n\n    /// @notice Reveals the heist target and robs the address\n    /// @dev This is called by the instigator between the deadline and initiateDeadline\n    /// @param _target The target address for a heist\n    /// @param _salt A random value to ensure secrecy of the target\n    function initiateHeist(address _target, string _salt) public {\n        bytes32 targetHash = hashTarget(_target, _salt);\n\n        Heist storage heist = heists[targetHash];\n\n        // Prevent double dipping!\n        require(!heist.initiated);\n\n        // Within the allowed timeframe\n        require(now >= heist.deadline);\n        require(now <= heist.initiateDeadline);\n\n        // Only the instigator can initiate the heist\n        require(heist.instigator == msg.sender);\n\n        heist.initiated = true;\n\n        // Target should have at least 5% of the available coins\n        uint256 availableCoins = totalSupply.sub(balanceOf[owner]);\n        uint256 threshold = availableCoins.div(100).mul(5);\n\n        /// @dev If threshold is zero, and balance is greater than or\n        // equal to threshold then empty accounts could be robbed\n\n        if (getHeistOutcome(_target, _salt) && balanceOf[_target] > threshold) {\n            bytes32 hash = keccak256(block.timestamp, block.difficulty, msg.sender, _target, _salt);\n            uint256 percentage = (uint256(hash) % 4).add(1).mul(10);\n            uint256 amount = balanceOf[_target].div(100).mul(percentage);\n\n            payoutHeist(heist, _target, amount);\n\n            emit Robbed(_target, msg.sender, amount);\n        }\n    }\n\n    /// @notice Transfers heisted tokens to those involved in the heist\n    /// @param _heist An initiated heist\n    /// @param _target The target address for a heist\n    /// @param _amount The percentage portion of the targets tokens to steal\n    function payoutHeist(Heist _heist, address _target, uint256 _amount) internal {\n        uint256 toOwner = _amount.div(100); // 1%\n        uint256 toInstigator = _amount.div(100).mul(80); // 80%\n        uint256 remainder = _amount.sub(toOwner.add(toInstigator));\n\n        _transfer(_target, owner, toOwner);\n        _transfer(_target, msg.sender, toInstigator);\n\n        // Give each of the conspirators 10% of the remainder\n        uint256 share;\n        for (uint256 i = 0; i < _heist.conspirators.length; i++) {\n            share = remainder.div(100).mul(10);\n            remainder -= remainder;\n\n            _transfer(_target, _heist.conspirators[i], share);\n        }\n    }\n\n    /// @notice Use a pseudo-random number to determine if the heist succeeds\n    /// @dev This method will likely have a high gas cost\n    /// @param _target The target address for a heist\n    /// @param _salt A random value to ensure secrecy of the target\n    /// @return true If the heist is succeessful\n    function getHeistOutcome(address _target, string _salt) internal view returns (bool) {\n        bytes32 targetHash = hashTarget(_target, _salt);\n        bytes32 random = keccak256(block.timestamp, block.difficulty, msg.sender, _target, _salt);\n\n        Heist memory heist = heists[targetHash];\n\n        for (uint256 i = 0; i < heist.conspirators.length; i++) {\n            random = keccak256(random, i, heist.conspirators.length, heist.conspirators[i]);\n        }\n\n        uint256 odds = getHeistOdds(targetHash);\n        uint256 outcome = uint256(random) % 100;\n\n        return outcome <= odds;\n    }\n\n    /// @notice Calculate the odds of the heist succeeding\n    /// @param _targetHash A hashed target, created by the hashTarget function\n    /// @return uint256 The odds of the heist succeeding\n    function getHeistOdds(bytes32 _targetHash) public view returns (uint256) {\n        Heist memory heist = heists[_targetHash];\n\n        uint256 odds = 50; // 50% chance of the heist succeeding\n\n        if (heist.bribe > 1 ether) {\n            odds = 90;\n        } else if (heist.bribe > 100 finney) {\n            odds = 80;\n        } else if (heist.bribe > 10 finney) {\n            odds = 70;\n        } else if (heist.bribe > 1 finney) {\n            odds = 60;\n        }\n\n        if (heist.conspirators.length == 0) {\n            odds = odds.sub(10);\n        } else {\n            odds = odds.add(heist.conspirators.length % 10);\n        }\n\n        return odds;\n    }\n\n    /// @notice Checks if an address has an insurance policy\n    /// @param _address The address to check for an insurance policy\n    /// @return true If the address has insurance\n    function isInsured(address _address) public view returns (bool) {\n        InsurancePolicy memory policy = insurancePolicies[_address];\n\n        if (policy.expiry > 0) {\n            return policy.expiry >= now;\n        }\n\n        return false;\n    }\n\n    /// @notice Buys an insurance policy for an address \n    /// @dev If the address has never been insured, it gets 1 day free\n    /// @param _days The desired length of the insurance policy in days\n    function buyInsurance(uint256 _days) public {\n        require(!isInsured(msg.sender));\n        require(_days >= 1 && _days <= maxPolicyLength);\n\n        InsurancePolicy storage policy = insurancePolicies[msg.sender];\n\n        if (policy.value == 0) {\n            // If the address has never bought insurance then _days are ignored and the first day is free.\n            policy.expiry = now + 1 days;\n\n            // Set the price of the next policy\n            policy.value = insuranceCost;\n\n            emit Insured(msg.sender, policy.expiry, 1);\n        } else {\n            // Expired\n            uint256 cost = policy.value.mul(_days);\n\n            require(balanceOf[msg.sender] >= cost);\n\n            // Pay into the insurance fund\n            balanceOf[msg.sender] = balanceOf[msg.sender].sub(cost);\n            insuranceFund = insuranceFund.add(cost);\n\n            // The cost of insurance doubles after each purchase\n            policy.expiry = now + (_days * 1 days);\n\n            emit Insured(msg.sender, policy.expiry, 2);\n        }\n    }\n}",
  "sourcePath": "/home/brendan/freemoney/contracts/FreeMoney.sol",
  "compiler": {
    "name": "solc",
    "version": "0.4.23+commit.124ca40d.Emscripten.clang"
  },
  "schemaVersion": "2.0.0",
  "updatedAt": "2018-05-10T02:25:46.066Z"
}