{
  "contractName": "FreeMoney",
  "abi": [
    {
      "constant": true,
      "inputs": [],
      "name": "name",
      "outputs": [
        {
          "name": "",
          "type": "string"
        }
      ],
      "payable": false,
      "stateMutability": "view",
      "type": "function"
    },
    {
      "constant": true,
      "inputs": [],
      "name": "totalSupply",
      "outputs": [
        {
          "name": "",
          "type": "uint256"
        }
      ],
      "payable": false,
      "stateMutability": "view",
      "type": "function"
    },
    {
      "constant": true,
      "inputs": [],
      "name": "maxPolicyLength",
      "outputs": [
        {
          "name": "",
          "type": "uint256"
        }
      ],
      "payable": false,
      "stateMutability": "view",
      "type": "function"
    },
    {
      "constant": true,
      "inputs": [],
      "name": "decimals",
      "outputs": [
        {
          "name": "",
          "type": "uint256"
        }
      ],
      "payable": false,
      "stateMutability": "view",
      "type": "function"
    },
    {
      "constant": true,
      "inputs": [
        {
          "name": "",
          "type": "bytes32"
        }
      ],
      "name": "heists",
      "outputs": [
        {
          "name": "instigator",
          "type": "address"
        },
        {
          "name": "deadline",
          "type": "uint256"
        },
        {
          "name": "initiateDeadline",
          "type": "uint256"
        },
        {
          "name": "bribe",
          "type": "uint256"
        },
        {
          "name": "initiated",
          "type": "bool"
        }
      ],
      "payable": false,
      "stateMutability": "view",
      "type": "function"
    },
    {
      "constant": true,
      "inputs": [
        {
          "name": "",
          "type": "address"
        }
      ],
      "name": "insurancePolicies",
      "outputs": [
        {
          "name": "value",
          "type": "uint256"
        },
        {
          "name": "expiry",
          "type": "uint256"
        }
      ],
      "payable": false,
      "stateMutability": "view",
      "type": "function"
    },
    {
      "constant": true,
      "inputs": [
        {
          "name": "",
          "type": "address"
        }
      ],
      "name": "balanceOf",
      "outputs": [
        {
          "name": "",
          "type": "uint256"
        }
      ],
      "payable": false,
      "stateMutability": "view",
      "type": "function"
    },
    {
      "constant": true,
      "inputs": [],
      "name": "owner",
      "outputs": [
        {
          "name": "",
          "type": "address"
        }
      ],
      "payable": false,
      "stateMutability": "view",
      "type": "function"
    },
    {
      "constant": true,
      "inputs": [
        {
          "name": "",
          "type": "uint256"
        }
      ],
      "name": "tokenHolders",
      "outputs": [
        {
          "name": "",
          "type": "address"
        }
      ],
      "payable": false,
      "stateMutability": "view",
      "type": "function"
    },
    {
      "constant": true,
      "inputs": [],
      "name": "symbol",
      "outputs": [
        {
          "name": "",
          "type": "string"
        }
      ],
      "payable": false,
      "stateMutability": "view",
      "type": "function"
    },
    {
      "constant": true,
      "inputs": [],
      "name": "insuranceFund",
      "outputs": [
        {
          "name": "",
          "type": "uint256"
        }
      ],
      "payable": false,
      "stateMutability": "view",
      "type": "function"
    },
    {
      "constant": true,
      "inputs": [
        {
          "name": "",
          "type": "address"
        },
        {
          "name": "",
          "type": "address"
        }
      ],
      "name": "allowance",
      "outputs": [
        {
          "name": "",
          "type": "uint256"
        }
      ],
      "payable": false,
      "stateMutability": "view",
      "type": "function"
    },
    {
      "constant": false,
      "inputs": [
        {
          "name": "newOwner",
          "type": "address"
        }
      ],
      "name": "transferOwnership",
      "outputs": [],
      "payable": false,
      "stateMutability": "nonpayable",
      "type": "function"
    },
    {
      "inputs": [
        {
          "name": "_initialSupply",
          "type": "uint256"
        }
      ],
      "payable": false,
      "stateMutability": "nonpayable",
      "type": "constructor"
    },
    {
      "anonymous": false,
      "inputs": [
        {
          "indexed": true,
          "name": "_from",
          "type": "address"
        },
        {
          "indexed": true,
          "name": "_to",
          "type": "address"
        },
        {
          "indexed": false,
          "name": "_value",
          "type": "uint256"
        }
      ],
      "name": "Transfer",
      "type": "event"
    },
    {
      "anonymous": false,
      "inputs": [
        {
          "indexed": true,
          "name": "_owner",
          "type": "address"
        },
        {
          "indexed": true,
          "name": "_spender",
          "type": "address"
        },
        {
          "indexed": false,
          "name": "_value",
          "type": "uint256"
        }
      ],
      "name": "Approval",
      "type": "event"
    },
    {
      "anonymous": false,
      "inputs": [
        {
          "indexed": true,
          "name": "_instigator",
          "type": "address"
        },
        {
          "indexed": false,
          "name": "_deadline",
          "type": "uint256"
        }
      ],
      "name": "NewHeist",
      "type": "event"
    },
    {
      "anonymous": false,
      "inputs": [
        {
          "indexed": true,
          "name": "_conspirator",
          "type": "address"
        }
      ],
      "name": "JoinedHeist",
      "type": "event"
    },
    {
      "anonymous": false,
      "inputs": [
        {
          "indexed": true,
          "name": "_target",
          "type": "address"
        },
        {
          "indexed": true,
          "name": "_instigator",
          "type": "address"
        },
        {
          "indexed": false,
          "name": "_value",
          "type": "uint256"
        }
      ],
      "name": "Robbed",
      "type": "event"
    },
    {
      "anonymous": false,
      "inputs": [
        {
          "indexed": true,
          "name": "_policyHolder",
          "type": "address"
        },
        {
          "indexed": false,
          "name": "_expiry",
          "type": "uint256"
        },
        {
          "indexed": false,
          "name": "_type",
          "type": "uint8"
        }
      ],
      "name": "Insured",
      "type": "event"
    },
    {
      "anonymous": false,
      "inputs": [
        {
          "indexed": true,
          "name": "previousOwner",
          "type": "address"
        },
        {
          "indexed": true,
          "name": "newOwner",
          "type": "address"
        }
      ],
      "name": "OwnershipTransferred",
      "type": "event"
    },
    {
      "constant": false,
      "inputs": [
        {
          "name": "_to",
          "type": "address"
        },
        {
          "name": "_value",
          "type": "uint256"
        }
      ],
      "name": "transfer",
      "outputs": [
        {
          "name": "",
          "type": "bool"
        }
      ],
      "payable": false,
      "stateMutability": "nonpayable",
      "type": "function"
    },
    {
      "constant": false,
      "inputs": [
        {
          "name": "_from",
          "type": "address"
        },
        {
          "name": "_to",
          "type": "address"
        },
        {
          "name": "_value",
          "type": "uint256"
        }
      ],
      "name": "transferFrom",
      "outputs": [
        {
          "name": "",
          "type": "bool"
        }
      ],
      "payable": false,
      "stateMutability": "nonpayable",
      "type": "function"
    },
    {
      "constant": false,
      "inputs": [
        {
          "name": "_spender",
          "type": "address"
        },
        {
          "name": "_value",
          "type": "uint256"
        }
      ],
      "name": "approve",
      "outputs": [
        {
          "name": "",
          "type": "bool"
        }
      ],
      "payable": false,
      "stateMutability": "nonpayable",
      "type": "function"
    },
    {
      "constant": false,
      "inputs": [
        {
          "name": "_value",
          "type": "uint256"
        }
      ],
      "name": "mint",
      "outputs": [],
      "payable": true,
      "stateMutability": "payable",
      "type": "function"
    },
    {
      "constant": false,
      "inputs": [
        {
          "name": "_amount",
          "type": "uint256"
        }
      ],
      "name": "tax",
      "outputs": [],
      "payable": false,
      "stateMutability": "nonpayable",
      "type": "function"
    },
    {
      "constant": true,
      "inputs": [
        {
          "name": "_target",
          "type": "address"
        },
        {
          "name": "_salt",
          "type": "string"
        }
      ],
      "name": "hashTarget",
      "outputs": [
        {
          "name": "",
          "type": "bytes32"
        }
      ],
      "payable": false,
      "stateMutability": "pure",
      "type": "function"
    },
    {
      "constant": false,
      "inputs": [
        {
          "name": "_targetHash",
          "type": "bytes32"
        }
      ],
      "name": "planHeist",
      "outputs": [],
      "payable": true,
      "stateMutability": "payable",
      "type": "function"
    },
    {
      "constant": false,
      "inputs": [
        {
          "name": "_target",
          "type": "address"
        },
        {
          "name": "_salt",
          "type": "string"
        }
      ],
      "name": "initiateHeist",
      "outputs": [
        {
          "name": "",
          "type": "bool"
        }
      ],
      "payable": false,
      "stateMutability": "nonpayable",
      "type": "function"
    },
    {
      "constant": true,
      "inputs": [
        {
          "name": "_targetHash",
          "type": "bytes32"
        }
      ],
      "name": "getHeistOdds",
      "outputs": [
        {
          "name": "",
          "type": "uint256"
        }
      ],
      "payable": false,
      "stateMutability": "view",
      "type": "function"
    },
    {
      "constant": true,
      "inputs": [
        {
          "name": "_address",
          "type": "address"
        }
      ],
      "name": "isInsured",
      "outputs": [
        {
          "name": "",
          "type": "bool"
        }
      ],
      "payable": false,
      "stateMutability": "view",
      "type": "function"
    },
    {
      "constant": false,
      "inputs": [
        {
          "name": "_days",
          "type": "uint256"
        }
      ],
      "name": "buyInsurance",
      "outputs": [],
      "payable": false,
      "stateMutability": "nonpayable",
      "type": "function"
    }
  ],
  "bytecode": "0x60606040526040805190810160405280600a81526020017f46726565204d6f6e657900000000000000000000000000000000000000000000815250600190805190602001906200005192919062000173565b506040805190810160405280600381526020017f464d590000000000000000000000000000000000000000000000000000000000815250600290805190602001906200009f92919062000173565b50601260035560006009556007600a553415620000bb57600080fd5b6040516020806200281583398101604052808051906020019091905050336000806101000a81548173ffffffffffffffffffffffffffffffffffffffff021916908373ffffffffffffffffffffffffffffffffffffffff160217905550600354600a0a8102600481905550600454600560003373ffffffffffffffffffffffffffffffffffffffff1673ffffffffffffffffffffffffffffffffffffffff168152602001908152602001600020819055505062000222565b828054600181600116156101000203166002900490600052602060002090601f016020900481019282601f10620001b657805160ff1916838001178555620001e7565b82800160010185558215620001e7579182015b82811115620001e6578251825591602001919060010190620001c9565b5b509050620001f69190620001fa565b5090565b6200021f91905b808211156200021b57600081600090555060010162000201565b5090565b90565b6125e380620002326000396000f30060606040526004361061013e576000357c0100000000000000000000000000000000000000000000000000000000900463ffffffff16806306fdde0314610143578063095ea7b3146101d15780631317faf81461022b57806318160ddd146102c35780631ae3d5ff146102ec57806323b872dd1461030f5780632e08273314610388578063313ce567146103b157806335e378ef146103da5780633b291c01146104615780636bd7a8ca146104b55780636d7c92bd1461054957806370a08231146105845780637816ce6b146105d15780638da5cb5b146105ed578063923108d91461064257806395d89b41146106a55780639ba29d6d14610733578063a0712d6814610784578063a86a658c1461079c578063a9059cbb146107bf578063b790230314610819578063dd62ed3e14610842578063f2fde38b146108ae575b600080fd5b341561014e57600080fd5b6101566108e7565b6040518080602001828103825283818151815260200191508051906020019080838360005b8381101561019657808201518184015260208101905061017b565b50505050905090810190601f1680156101c35780820380516001836020036101000a031916815260200191505b509250505060405180910390f35b34156101dc57600080fd5b610211600480803573ffffffffffffffffffffffffffffffffffffffff16906020019091908035906020019091905050610985565b604051808215151515815260200191505060405180910390f35b341561023657600080fd5b6102a5600480803573ffffffffffffffffffffffffffffffffffffffff1690602001909190803590602001908201803590602001908080601f01602080910402602001604051908101604052809392919081815260200183838082843782019150505050505091905050610a77565b60405180826000191660001916815260200191505060405180910390f35b34156102ce57600080fd5b6102d6610b27565b6040518082815260200191505060405180910390f35b34156102f757600080fd5b61030d6004808035906020019091905050610b2d565b005b341561031a57600080fd5b61036e600480803573ffffffffffffffffffffffffffffffffffffffff1690602001909190803573ffffffffffffffffffffffffffffffffffffffff16906020019091908035906020019091905050610cba565b604051808215151515815260200191505060405180910390f35b341561039357600080fd5b61039b610de5565b6040518082815260200191505060405180910390f35b34156103bc57600080fd5b6103c4610deb565b6040518082815260200191505060405180910390f35b34156103e557600080fd5b6103ff600480803560001916906020019091905050610df1565b604051808673ffffffffffffffffffffffffffffffffffffffff1673ffffffffffffffffffffffffffffffffffffffff168152602001858152602001848152602001838152602001821515151581526020019550505050505060405180910390f35b341561046c57600080fd5b610498600480803573ffffffffffffffffffffffffffffffffffffffff16906020019091905050610e54565b604051808381526020018281526020019250505060405180910390f35b34156104c057600080fd5b61052f600480803573ffffffffffffffffffffffffffffffffffffffff1690602001909190803590602001908201803590602001908080601f01602080910402602001604051908101604052809392919081815260200183838082843782019150505050505091905050610e78565b604051808215151515815260200191505060405180910390f35b341561055457600080fd5b61056e6004808035600019169060200190919050506110bf565b6040518082815260200191505060405180910390f35b341561058f57600080fd5b6105bb600480803573ffffffffffffffffffffffffffffffffffffffff169060200190919050506112c0565b6040518082815260200191505060405180910390f35b6105eb6004808035600019169060200190919050506112d8565b005b34156105f857600080fd5b61060061159a565b604051808273ffffffffffffffffffffffffffffffffffffffff1673ffffffffffffffffffffffffffffffffffffffff16815260200191505060405180910390f35b341561064d57600080fd5b61066360048080359060200190919050506115bf565b604051808273ffffffffffffffffffffffffffffffffffffffff1673ffffffffffffffffffffffffffffffffffffffff16815260200191505060405180910390f35b34156106b057600080fd5b6106b86115fe565b6040518080602001828103825283818151815260200191508051906020019080838360005b838110156106f85780820151818401526020810190506106dd565b50505050905090810190601f1680156107255780820380516001836020036101000a031916815260200191505b509250505060405180910390f35b341561073e57600080fd5b61076a600480803573ffffffffffffffffffffffffffffffffffffffff1690602001909190505061169c565b604051808215151515815260200191505060405180910390f35b61079a600480803590602001909190505061172d565b005b34156107a757600080fd5b6107bd60048080359060200190919050506119b1565b005b34156107ca57600080fd5b6107ff600480803573ffffffffffffffffffffffffffffffffffffffff16906020019091908035906020019091905050611bdf565b604051808215151515815260200191505060405180910390f35b341561082457600080fd5b61082c611bf4565b6040518082815260200191505060405180910390f35b341561084d57600080fd5b610898600480803573ffffffffffffffffffffffffffffffffffffffff1690602001909190803573ffffffffffffffffffffffffffffffffffffffff16906020019091905050611bfa565b6040518082815260200191505060405180910390f35b34156108b957600080fd5b6108e5600480803573ffffffffffffffffffffffffffffffffffffffff16906020019091905050611c1f565b005b60018054600181600116156101000203166002900480601f01602080910402602001604051908101604052809291908181526020018280546001816001161561010002031660029004801561097d5780601f106109525761010080835404028352916020019161097d565b820191906000526020600020905b81548152906001019060200180831161096057829003601f168201915b505050505081565b600081600660003373ffffffffffffffffffffffffffffffffffffffff1673ffffffffffffffffffffffffffffffffffffffff16815260200190815260200160002060008573ffffffffffffffffffffffffffffffffffffffff1673ffffffffffffffffffffffffffffffffffffffff168152602001908152602001600020819055508273ffffffffffffffffffffffffffffffffffffffff163373ffffffffffffffffffffffffffffffffffffffff167f8c5be1e5ebec7d5bd14f71427d1e84f3dd0314c0f7b2291e5b200ac8c7c3b925846040518082815260200191505060405180910390a36001905092915050565b60008282604051808373ffffffffffffffffffffffffffffffffffffffff1673ffffffffffffffffffffffffffffffffffffffff166c0100000000000000000000000002815260140182805190602001908083835b602083101515610af15780518252602082019150602081019050602083039250610acc565b6001836020036101000a038019825116818451168082178552505050505050905001925050506040518091039020905092915050565b60045481565b60008060009054906101000a900473ffffffffffffffffffffffffffffffffffffffff1673ffffffffffffffffffffffffffffffffffffffff163373ffffffffffffffffffffffffffffffffffffffff16141515610b8a57600080fd5b60648210158015610b9d57506103e88211155b1515610ba857600080fd5b600090505b600780549050811015610cb657610ca8600782815481101515610bcc57fe5b906000526020600020900160009054906101000a900473ffffffffffffffffffffffffffffffffffffffff166000809054906101000a900473ffffffffffffffffffffffffffffffffffffffff168461271060056000600788815481101515610c3157fe5b906000526020600020900160009054906101000a900473ffffffffffffffffffffffffffffffffffffffff1673ffffffffffffffffffffffffffffffffffffffff1673ffffffffffffffffffffffffffffffffffffffff16815260200190815260200160002054811515610ca157fe5b0402611d74565b508080600101915050610bad565b5050565b6000600660008573ffffffffffffffffffffffffffffffffffffffff1673ffffffffffffffffffffffffffffffffffffffff16815260200190815260200160002060003373ffffffffffffffffffffffffffffffffffffffff1673ffffffffffffffffffffffffffffffffffffffff168152602001908152602001600020548211151515610d4757600080fd5b81600660008673ffffffffffffffffffffffffffffffffffffffff1673ffffffffffffffffffffffffffffffffffffffff16815260200190815260200160002060003373ffffffffffffffffffffffffffffffffffffffff1673ffffffffffffffffffffffffffffffffffffffff16815260200190815260200160002060008282540392505081905550610ddc848484611d74565b90509392505050565b600a5481565b60035481565b60086020528060005260406000206000915090508060000160009054906101000a900473ffffffffffffffffffffffffffffffffffffffff16908060020154908060030154908060040154908060050160009054906101000a900460ff16905085565b600b6020528060005260406000206000915090508060000154908060010154905082565b6000806000806000610e8a8787610a77565b935060086000856000191660001916815260200190815260200160002092508260050160009054906101000a900460ff16151515610ec757600080fd5b82600201544210151515610eda57600080fd5b82600301544211151515610eed57600080fd5b3373ffffffffffffffffffffffffffffffffffffffff168360000160009054906101000a900473ffffffffffffffffffffffffffffffffffffffff1673ffffffffffffffffffffffffffffffffffffffff16141515610f4b57600080fd5b60018360050160006101000a81548160ff021916908315150217905550600560008060009054906101000a900473ffffffffffffffffffffffffffffffffffffffff1673ffffffffffffffffffffffffffffffffffffffff1673ffffffffffffffffffffffffffffffffffffffff168152602001908152602001600020546004540391506005606483811515610fdd57fe5b04029050610feb87876121a2565b8015611035575080600560008973ffffffffffffffffffffffffffffffffffffffff1673ffffffffffffffffffffffffffffffffffffffff16815260200190815260200160002054115b156110b0573373ffffffffffffffffffffffffffffffffffffffff168773ffffffffffffffffffffffffffffffffffffffff167f64496cf7d7ff7f8a136e832e3364c67b260e2d155296bbee239bbdc91b4ec39f600354600a0a6001026040518082815260200191505060405180910390a3600194506110b5565b600094505b5050505092915050565b60006110c96124e3565b600060086000856000191660001916815260200190815260200160002060c060405190810160405290816000820160009054906101000a900473ffffffffffffffffffffffffffffffffffffffff1673ffffffffffffffffffffffffffffffffffffffff1673ffffffffffffffffffffffffffffffffffffffff168152602001600182018054806020026020016040519081016040528092919081815260200182805480156111cd57602002820191906000526020600020905b8160009054906101000a900473ffffffffffffffffffffffffffffffffffffffff1673ffffffffffffffffffffffffffffffffffffffff1681526020019060010190808311611183575b505050505081526020016002820154815260200160038201548152602001600482015481526020016005820160009054906101000a900460ff161515151581525050915060329050670de0b6b3a76400008260800151111561123257605a9050611286565b67016345785d8a00008260800151111561124f5760509050611285565b662386f26fc100008260800151111561126b5760469050611284565b66038d7ea4c680008260800151111561128357603c90505b5b5b5b6000826020015151141561129f57600a810390506112b6565b600a8260200151518115156112b057fe5b06810190505b8092505050919050565b60056020528060005260406000206000915090505481565b600060086000836000191660001916815260200190815260200160002090506000341115611362576000809054906101000a900473ffffffffffffffffffffffffffffffffffffffff1673ffffffffffffffffffffffffffffffffffffffff166108fc349081150290604051600060405180830381858888f19350505050151561136157600080fd5b5b60008160000160009054906101000a900473ffffffffffffffffffffffffffffffffffffffff1673ffffffffffffffffffffffffffffffffffffffff16141561148157338160000160006101000a81548173ffffffffffffffffffffffffffffffffffffffff021916908373ffffffffffffffffffffffffffffffffffffffff16021790555062015180420181600201819055506201fa404201816003018190555034816004018190555060008160050160006101000a81548160ff0219169083151502179055503373ffffffffffffffffffffffffffffffffffffffff167f7079965f847580b3709f08849ebba4e5ca742019f9cd234d55a40d2a7978713d82600201546040518082815260200191505060405180910390a2611596565b3481600401600082825401925050819055503373ffffffffffffffffffffffffffffffffffffffff168160000160009054906101000a900473ffffffffffffffffffffffffffffffffffffffff1673ffffffffffffffffffffffffffffffffffffffff16141515611595578060010180548060010182816115029190612538565b9160005260206000209001600033909190916101000a81548173ffffffffffffffffffffffffffffffffffffffff021916908373ffffffffffffffffffffffffffffffffffffffff160217905550503373ffffffffffffffffffffffffffffffffffffffff167fa065391bddee72142adfb9f2c9db40894c0641808de63f9f440ab1f74a9918ea60405160405180910390a25b5b5050565b6000809054906101000a900473ffffffffffffffffffffffffffffffffffffffff1681565b6007818154811015156115ce57fe5b90600052602060002090016000915054906101000a900473ffffffffffffffffffffffffffffffffffffffff1681565b60028054600181600116156101000203166002900480601f0160208091040260200160405190810160405280929190818152602001828054600181600116156101000203166002900480156116945780601f1061166957610100808354040283529160200191611694565b820191906000526020600020905b81548152906001019060200180831161167757829003601f168201915b505050505081565b60006116a6612564565b600b60008473ffffffffffffffffffffffffffffffffffffffff1673ffffffffffffffffffffffffffffffffffffffff1681526020019081526020016000206040805190810160405290816000820154815260200160018201548152505090506000816020015111156117225742816020015110159150611727565b600091505b50919050565b60008060009054906101000a900473ffffffffffffffffffffffffffffffffffffffff1673ffffffffffffffffffffffffffffffffffffffff163373ffffffffffffffffffffffffffffffffffffffff16148061178a5750600034115b151561179557600080fd5b600354600a0a8202905080600560003373ffffffffffffffffffffffffffffffffffffffff1673ffffffffffffffffffffffffffffffffffffffff16815260200190815260200160002060008282540192505081905550806004600082825401925050819055506000809054906101000a900473ffffffffffffffffffffffffffffffffffffffff1673ffffffffffffffffffffffffffffffffffffffff1660007fddf252ad1be2c89b69c2b068fc378daa952ba7f163c4a11628f55a4df523b3ef846040518082815260200191505060405180910390a36000809054906101000a900473ffffffffffffffffffffffffffffffffffffffff1673ffffffffffffffffffffffffffffffffffffffff163373ffffffffffffffffffffffffffffffffffffffff161415156119ad57600780548060010182816118d79190612538565b9160005260206000209001600033909190916101000a81548173ffffffffffffffffffffffffffffffffffffffff021916908373ffffffffffffffffffffffffffffffffffffffff160217905550503373ffffffffffffffffffffffffffffffffffffffff166000809054906101000a900473ffffffffffffffffffffffffffffffffffffffff1673ffffffffffffffffffffffffffffffffffffffff167fddf252ad1be2c89b69c2b068fc378daa952ba7f163c4a11628f55a4df523b3ef846040518082815260200191505060405180910390a35b5050565b6000806119bd3361169c565b1515156119c957600080fd5b600183101580156119dc5750600a548311155b15156119e757600080fd5b600b60003373ffffffffffffffffffffffffffffffffffffffff1673ffffffffffffffffffffffffffffffffffffffff1681526020019081526020016000209150600082600001541415611ab7576201518042018260010181905550600354600a0a60640282600001819055503373ffffffffffffffffffffffffffffffffffffffff167fa2e9b64360484df198a6f5122927c7604b0b3b0fc5b014f9b0e3e03a65c5caa083600101546001604051808381526020018260ff1681526020019250505060405180910390a2611bda565b82826000015402905080600560003373ffffffffffffffffffffffffffffffffffffffff1673ffffffffffffffffffffffffffffffffffffffff1681526020019081526020016000205410151515611b0e57600080fd5b80600560003373ffffffffffffffffffffffffffffffffffffffff1673ffffffffffffffffffffffffffffffffffffffff1681526020019081526020016000206000828254039250508190555080600960008282540192505081905550620151808302420182600101819055503373ffffffffffffffffffffffffffffffffffffffff167fa2e9b64360484df198a6f5122927c7604b0b3b0fc5b014f9b0e3e03a65c5caa083600101546002604051808381526020018260ff1681526020019250505060405180910390a25b505050565b6000611bec338484611d74565b905092915050565b60095481565b6006602052816000526040600020602052806000526040600020600091509150505481565b6000809054906101000a900473ffffffffffffffffffffffffffffffffffffffff1673ffffffffffffffffffffffffffffffffffffffff163373ffffffffffffffffffffffffffffffffffffffff16141515611c7a57600080fd5b600073ffffffffffffffffffffffffffffffffffffffff168173ffffffffffffffffffffffffffffffffffffffff1614151515611cb657600080fd5b8073ffffffffffffffffffffffffffffffffffffffff166000809054906101000a900473ffffffffffffffffffffffffffffffffffffffff1673ffffffffffffffffffffffffffffffffffffffff167f8be0079c531659141344cd1fd0a4f28419497f9722a3daafe3b4186f6b6457e060405160405180910390a3806000806101000a81548173ffffffffffffffffffffffffffffffffffffffff021916908373ffffffffffffffffffffffffffffffffffffffff16021790555050565b60008060008473ffffffffffffffffffffffffffffffffffffffff1614151515611d9d57600080fd5b82600560008773ffffffffffffffffffffffffffffffffffffffff1673ffffffffffffffffffffffffffffffffffffffff1681526020019081526020016000205410151515611deb57600080fd5b600560008573ffffffffffffffffffffffffffffffffffffffff1673ffffffffffffffffffffffffffffffffffffffff1681526020019081526020016000205483600560008773ffffffffffffffffffffffffffffffffffffffff1673ffffffffffffffffffffffffffffffffffffffff168152602001908152602001600020540110151515611e7a57600080fd5b6000600560008673ffffffffffffffffffffffffffffffffffffffff1673ffffffffffffffffffffffffffffffffffffffff168152602001908152602001600020541415611f265760078054806001018281611ed69190612538565b9160005260206000209001600086909190916101000a81548173ffffffffffffffffffffffffffffffffffffffff021916908373ffffffffffffffffffffffffffffffffffffffff160217905550505b82600560008773ffffffffffffffffffffffffffffffffffffffff1673ffffffffffffffffffffffffffffffffffffffff1681526020019081526020016000206000828254039250508190555082600560008673ffffffffffffffffffffffffffffffffffffffff1673ffffffffffffffffffffffffffffffffffffffff168152602001908152602001600020600082825401925050819055506000600560008773ffffffffffffffffffffffffffffffffffffffff1673ffffffffffffffffffffffffffffffffffffffff1681526020019081526020016000205414801561205c57506000809054906101000a900473ffffffffffffffffffffffffffffffffffffffff1673ffffffffffffffffffffffffffffffffffffffff168573ffffffffffffffffffffffffffffffffffffffff1614155b1561213157600090505b600780549050811015612130578473ffffffffffffffffffffffffffffffffffffffff1660078281548110151561209957fe5b906000526020600020900160009054906101000a900473ffffffffffffffffffffffffffffffffffffffff1673ffffffffffffffffffffffffffffffffffffffff161415612123576007818154811015156120f057fe5b906000526020600020900160006101000a81549073ffffffffffffffffffffffffffffffffffffffff0219169055612130565b8080600101915050612066565b5b8373ffffffffffffffffffffffffffffffffffffffff168573ffffffffffffffffffffffffffffffffffffffff167fddf252ad1be2c89b69c2b068fc378daa952ba7f163c4a11628f55a4df523b3ef856040518082815260200191505060405180910390a360019150509392505050565b60008060006121af6124e3565b60008060006121be8989610a77565b95504244338b8b604051808681526020018581526020018473ffffffffffffffffffffffffffffffffffffffff1673ffffffffffffffffffffffffffffffffffffffff166c010000000000000000000000000281526014018373ffffffffffffffffffffffffffffffffffffffff1673ffffffffffffffffffffffffffffffffffffffff166c0100000000000000000000000002815260140182805190602001908083835b6020831015156122885780518252602082019150602081019050602083039250612263565b6001836020036101000a038019825116818451168082178552505050505050905001955050505050506040518091039020945060086000876000191660001916815260200190815260200160002060c060405190810160405290816000820160009054906101000a900473ffffffffffffffffffffffffffffffffffffffff1673ffffffffffffffffffffffffffffffffffffffff1673ffffffffffffffffffffffffffffffffffffffff168152602001600182018054806020026020016040519081016040528092919081815260200182805480156123bd57602002820191906000526020600020905b8160009054906101000a900473ffffffffffffffffffffffffffffffffffffffff1673ffffffffffffffffffffffffffffffffffffffff1681526020019060010190808311612373575b505050505081526020016002820154815260200160038201548152602001600482015481526020016005820160009054906101000a900460ff1615151515815250509350600092505b8360200151518310156124b357848385602001515186602001518681518110151561242d57fe5b906020019060200201516040518085600019166000191681526020018481526020018381526020018273ffffffffffffffffffffffffffffffffffffffff1673ffffffffffffffffffffffffffffffffffffffff166c01000000000000000000000000028152601401945050505050604051809103902094508280600101935050612406565b6124bc866110bf565b9150606485600190048115156124ce57fe5b06905081811115965050505050505092915050565b60c060405190810160405280600073ffffffffffffffffffffffffffffffffffffffff16815260200161251461257e565b81526020016000815260200160008152602001600081526020016000151581525090565b81548183558181151161255f5781836000526020600020918201910161255e9190612592565b5b505050565b604080519081016040528060008152602001600081525090565b602060405190810160405280600081525090565b6125b491905b808211156125b0576000816000905550600101612598565b5090565b905600a165627a7a723058202c3f6d687be294043c49e64412bba105ae68e5f37c75641b81ad3eee19b8e94b0029",
  "source": "pragma solidity ^0.4.21;\n\nimport 'zeppelin-solidity/contracts/ownership/Ownable.sol';\n\n/// @title Free Money\n/// @author Brendan Smith\n/// @notice Everyone deserves to be rich ;)\ncontract FreeMoney is Ownable {\n    string public name = 'Free Money';\n    string public symbol = 'FMY';\n    uint public decimals = 18;\n    uint public totalSupply;\n    mapping (address => uint) public balanceOf;\n    mapping (address => mapping (address => uint256)) public allowance;\n    event Transfer(address indexed _from, address indexed _to, uint256 _value);\n    event Approval(address indexed _owner, address indexed _spender, uint256 _value);\n\n    /// @notice Token holder tracking for tax purposes\n    address[] public tokenHolders;\n\n    /// @notice Heists can be instigated by any token holder\n    struct Heist {\n        address instigator;\n        address[] conspirators;\n        uint deadline;\n        uint initiateDeadline;\n        uint bribe;\n        bool initiated;\n    }\n    mapping (bytes32 => Heist) public heists;\n    event NewHeist(address indexed _instigator, uint256 _deadline);\n    event JoinedHeist(address indexed _conspirator);\n    event Robbed(address indexed _target, address indexed _instigator, uint256 _value);\n\n    /// @notice Insurance protects against loss from heists\n    struct InsurancePolicy {\n        uint value;\n        uint expiry;\n    }\n    uint public insuranceFund = 0;\n    uint public maxPolicyLength = 7; // days\n    mapping (address => InsurancePolicy) public insurancePolicies;\n    event Insured(address indexed _policyHolder, uint256 _expiry, uint8 _type);\n\n    /// @notice Instantiates the contract and gives the initial tokens to the sender\n    /// @param _initialSupply Number of initial tokens\n    function FreeMoney(uint _initialSupply) public {\n        totalSupply = _initialSupply * (10 ** decimals);\n        balanceOf[msg.sender] = totalSupply;\n    }\n\n    /// @notice Transfers tokens between two addresses\n    /// @param _from Sending address\n    /// @param _to Receiving address\n    /// @param _value Number tokens to send\n    function _transfer(address _from, address _to, uint _value) internal returns (bool) {\n        require(_to != 0x0); // To address cannot be 0\n        require(balanceOf[_from] >= _value);\n        require(balanceOf[_to] + _value >= balanceOf[_to]);\n\n        // Check if the recipient is a token holder already\n        if (balanceOf[_to] == 0) {\n            tokenHolders.push(_to);\n        }\n\n        balanceOf[_from] -= _value;\n        balanceOf[_to] += _value;\n\n        // Remove the sender from the token holders list\n        if (balanceOf[_from] == 0 && _from != owner) {\n            for (uint i = 0; i < tokenHolders.length; i++) {\n                if (tokenHolders[i] == _from) {\n                    delete tokenHolders[i];\n                    break;\n                }\n            }\n        }\n\n        emit Transfer(_from, _to, _value);\n\n        return true;\n    }\n\n    /// @notice Transfers tokens from the sender\n    /// @param _to Receiving address\n    /// @param _value Number tokens to send\n    /// @return true If the tranfer succeeds\n    function transfer(address _to, uint _value) public returns (bool) {\n        return _transfer(msg.sender, _to, _value);\n    }\n\n    /// @notice Spends the senders allowance from the _from address\n    /// @param _from Sending address\n    /// @param _to Receiving address\n    /// @param _value Number tokens to send\n    /// @return true If the tranfer succeeds\n    function transferFrom(address _from, address _to, uint _value) public returns (bool) {\n        require(_value <= allowance[_from][msg.sender]);\n\n        allowance[_from][msg.sender] -= _value;\n\n        return _transfer(_from, _to, _value);\n    }\n\n    /// @notice Approves an address to spend an allowance of tokens from the sender address\n    /// @param _spender The address to approve for spending the senders tokens\n    /// @param _value Number tokens the spender can send\n    /// @return true If the approval succeeds\n    function approve(address _spender, uint _value) public returns (bool) {\n        allowance[msg.sender][_spender] = _value;\n\n        emit Approval(msg.sender, _spender, _value);\n\n        return true;\n    }\n\n    /// @notice Mints a number of new coins for a donation of ETH\n    /// @dev Free for the owner\n    /// @param _value Number of tokens to mint\n    function mint(uint _value) public payable {\n        require(msg.sender == owner || msg.value > 0);\n\n        uint newAmount = _value * (10 ** decimals);\n        balanceOf[msg.sender] += newAmount;\n        totalSupply += newAmount;\n\n        emit Transfer(0, owner, _value);\n\n        if (msg.sender != owner) {\n            tokenHolders.push(msg.sender);\n\n            emit Transfer(owner, msg.sender, _value);\n        }\n    }\n\n    /// @notice Taxes each token holder and transfers the tokens to the owner\n    /// @dev This method will likely have a high gas cost\n    /// @param _amount The amount to tax, range is 1-10%\n    function tax(uint _amount) public onlyOwner {\n        // Tax amount must be between 1% and 10%\n        require(_amount >= 100 && _amount <= 1000);\n\n        for (uint i = 0; i < tokenHolders.length; i++) {\n            // TODO: Tax thresholds\n            _transfer(tokenHolders[i], owner, (balanceOf[tokenHolders[i]] / 10000 * _amount));\n        }\n\n        // TODO: Tax event\n    }\n\n    /// @dev Hash the target address for a heist\n    /// @param _target The target address for a heist\n    /// @param _salt A random value to ensure secrecy of the target\n    /// @return The hash of the target address\n    function hashTarget(address _target, string _salt) pure public returns (bytes32) {\n        return keccak256(_target, _salt);\n    }\n\n    /// @notice Starts a heist or joins an existing heist\n    /// @param _targetHash A hashed target, created by the hashTarget function\n    function planHeist(bytes32 _targetHash) public payable {\n        Heist storage heist = heists[_targetHash];\n\n        // Bribes are always helpful\n        if (msg.value > 0) {\n            owner.transfer(msg.value);\n        }\n\n        if (heist.instigator == 0) {\n            // New heist, set the 24 hour deadline\n            heist.instigator = msg.sender;\n            heist.deadline = now + 24 hours;\n            heist.initiateDeadline = now + 36 hours;\n            heist.bribe = msg.value;\n            heist.initiated = false;\n\n            emit NewHeist(msg.sender, heist.deadline);\n        } else {\n            heist.bribe += msg.value;\n\n            // Existing heist, add the sender to the conspirators\n            if (heist.instigator != msg.sender) {\n                heist.conspirators.push(msg.sender);\n\n                emit JoinedHeist(msg.sender);\n            }\n        }\n    }\n\n    /// @notice Reveals the heist target and robs the address\n    /// @dev This is called by the instigator between the deadline and initiateDeadline\n    /// @param _target The target address for a heist\n    /// @param _salt A random value to ensure secrecy of the target\n    function initiateHeist(address _target, string _salt) public returns (bool) {\n        bytes32 targetHash = hashTarget(_target, _salt);\n\n        Heist storage heist = heists[targetHash];\n\n        // Prevent double dipping!\n        require(!heist.initiated);\n\n        // Within the allowed timeframe\n        require(now >= heist.deadline);\n        require(now <= heist.initiateDeadline);\n\n        // Only the instigator can initiate the heist\n        require(heist.instigator == msg.sender);\n\n        heist.initiated = true;\n\n        // Target should have at least 5% of the available coins\n        uint availableCoins = totalSupply - balanceOf[owner];\n        uint threshold = availableCoins / 100 * 5;\n\n        /// @dev If threshold is zero, and balance is greater than or\n        // equal to threshold then empty accounts could be robbed\n\n        if (getHeistOutcome(_target, _salt) && balanceOf[_target] > threshold) {\n            // TODO: Pay the instigator and lock the conspirator funds from the account\n\n            emit Robbed(_target, msg.sender, 1 * (10 ** decimals));\n\n            return true;\n        }\n\n        return false;\n    }\n\n    /// @notice Use a pseudo-random number to determine if the heist succeeds\n    /// @dev This method will likely have a high gas cost\n    /// @param _target The target address for a heist\n    /// @param _salt A random value to ensure secrecy of the target\n    /// @return true If the heist is succeessful\n    function getHeistOutcome(address _target, string _salt) internal view returns (bool) {\n        bytes32 targetHash = hashTarget(_target, _salt);\n        bytes32 random = keccak256(block.timestamp, block.difficulty, msg.sender, _target, _salt);\n\n        Heist memory heist = heists[targetHash];\n\n        for (uint i = 0; i < heist.conspirators.length; i++) {\n            random = keccak256(random, i, heist.conspirators.length, heist.conspirators[i]);\n        }\n\n        uint odds = getHeistOdds(targetHash);\n        uint outcome = uint256(random) % 100;\n\n        return outcome <= odds;\n    }\n\n    /// @notice Calculate the odds of the heist succeeding\n    /// @param _targetHash A hashed target, created by the hashTarget function\n    /// @return uint The odds of the heist succeeding\n    function getHeistOdds(bytes32 _targetHash) public view returns (uint) {\n        Heist memory heist = heists[_targetHash];\n\n        uint odds = 50; // 50% chance of the heist succeeding\n\n        if (heist.bribe > 1 ether) {\n            odds = 90;\n        } else if (heist.bribe > 100 finney) {\n            odds = 80;\n        } else if (heist.bribe > 10 finney) {\n            odds = 70;\n        } else if (heist.bribe > 1 finney) {\n            odds = 60;\n        }\n\n        if (heist.conspirators.length == 0) {\n            odds -= 10;\n        } else {\n            odds += heist.conspirators.length % 10;\n        }\n\n        return odds;\n    }\n\n    /// @notice Checks if an address has an insurance policy\n    /// @param _address The address to check for an insurance policy\n    /// @return true If the address has insurance\n    function isInsured(address _address) public view returns (bool) {\n        InsurancePolicy memory policy = insurancePolicies[_address];\n\n        if (policy.expiry > 0) {\n            return policy.expiry >= now;\n        }\n\n        return false;\n    }\n\n    /// @notice Buys an insurance policy for an address \n    /// @dev If the address has never been insured, it gets 1 day free\n    /// @param _days The desired length of the insurance policy in days\n    function buyInsurance(uint _days) public {\n        require(!isInsured(msg.sender));\n        require(_days >= 1 && _days <= maxPolicyLength);\n\n        InsurancePolicy storage policy = insurancePolicies[msg.sender];\n\n        if (policy.value == 0) {\n            // If the address has never bought insurance then _days are ignored and the first day is free.\n            policy.expiry = now + 1 days;\n\n            // Set the price of the next policy\n            policy.value = 100 * (10 ** decimals);\n\n            emit Insured(msg.sender, policy.expiry, 1);\n        } else {\n            // Expired\n            uint cost = policy.value * _days;\n\n            require(balanceOf[msg.sender] >= cost);\n\n            // Pay into the insurance fund\n            balanceOf[msg.sender] -= cost;\n            insuranceFund += cost;\n\n            // The cost of insurance doubles after each purchase\n            policy.expiry = now + (_days * 1 days);\n\n            emit Insured(msg.sender, policy.expiry, 2);\n        }\n    }\n}",
  "sourcePath": "/home/brendan/freemoney/contracts/FreeMoney.sol",
  "compiler": {
    "name": "solc",
    "version": "0.4.21+commit.dfe3193c.Emscripten.clang"
  },
  "schemaVersion": "2.0.0",
  "updatedAt": "2018-05-07T12:35:15.149Z"
}